:020000040800F2
:10000000E812002055120008D133000881120008C0
:10001000811200088112000881120008000000000F
:10002000000000000000000000000000DD100008DB
:10003000811200080000000095100008B50E0008AD
:100040002D1200082D1200082D1200082D12000894
:100050002D1200082D1200082D1200082D12000884
:100060002D1200082D1200082D1200082D12000874
:100070002D1200082D1200082D1200082D12000864
:100080002D1200082D1200082D1200082D12000854
:100090002D1200082D1200082D1200082D12000844
:1000A0002D1200082D1200082D1200082D12000834
:1000B0002D1200082D1200082D1200082D12000824
:1000C0002D1200082D1200082D1200082D12000814
:1000D0002D1200082D1200082D1200082D12000804
:1000E0002D1200082D1200082D1200082D120008F4
:1000F0002D1200082D1200082D1200082D120008E4
:100100002D1200082D1200082D1200082D120008D3
:100110002D1200082D1200082D1200082D120008C3
:100120002D1200082D1200082D1200082D120008B3
:100130002D1200082D1200082D1200082D120008A3
:100140002D1200082D1200082D1200082D12000893
:100150002D1200082D1200082D1200082D12000883
:100160002D1200082D1200082D1200082D12000873
:100170002D1200082D1200082D1200082D12000863
:080180002D1200082D120008E9
:1001880053B94AB9002908BF00281CBF4FF0FF31F6
:100198004FF0FF3000F06EB9ADF1080C6DE904CEF8
:1001A80000F006F8DDF804E0DDE9022304B070474A
:1001B8002DE9F047089D0E4604468C46002B40F07A
:1001C80081808A42174645D9B2FA82F24AB1C2F111
:1001D800200106FA02F320FA01F1974041EA030CE4
:1001E80094404FEA174E230CBCFBFEF6B9B20EFB47
:1001F80016CC43EA0C4306FB01F0984209D9FB18D8
:1002080006F1FF3C80F01581984240F21281023ECF
:100218003B441B1AA4B2B3FBFEF00EFB103344EAB6
:10022800034400FB01F1A14209D93C1900F1FF3355
:1002380080F00181A14240F2FE8002383C44641AF9
:1002480040EA064000211DB1D4400023C5E900431F
:10025800BDE8F08702B9FFDEB2FA82F2002A4FD178
:10026800CB1B4FEA174E1FFA87F80121B3FBFEFCA0
:10027800260C0EFB1C3346EA034608FB0CF3B3427C
:1002880007D9BE190CF1FF3002D2B34200F2EB805D
:100298008446F61AA3B2B6FBFEF00EFB106643EADC
:1002A800064408FB00F8A04507D93C1900F1FF33C4
:1002B80002D2A04500F2D2801846A4EB080440EA16
:1002C8000C40C0E78B4208D9002D00F0AF80002118
:1002D800C5E900060846BDE8F087B3FA83F10029AE
:1002E80049D1B34202D3824200F2BB80841A66EB42
:1002F800030301209C46002DAAD0C5E9004CA7E7BE
:10030800C2F120039740D8409140DE404FEA174E93
:1003180008434FEA104CB6FBFEF11FFA87F80EFBB4
:1003280011664CEA064601FB08F3B34204FA02F4EC
:1003380009D9BE1901F1FF3C80F08E80B34240F22A
:100348008B8002393E44F31A86B2B3FBFEF00EFBF3
:10035800103346EA034600FB08F3B34207D9BE1937
:1003680000F1FF3C74D2B34272D902383E44F31A0A
:1003780040EA01417AE7C1F1200703FA01F422FAC1
:1003880007F31C4320FA07F906FA01F34FEA144C65
:10039800FE4049EA03094FEA1943B6FBFCFE1FFA7F
:1003A80084F80CFB1E6643EA06460EFB08FAB245C3
:1003B80002FA01F200FA01F308D9A6190EF1FF308A
:1003C80048D2B24546D9AEF1020E2644A6EB0A063B
:1003D8001FFA89F9B6FBFCF00CFB106649EA0646E1
:1003E80000FB08F8B04507D9A61900F1FF3C2DD24B
:1003F800B0452BD90238264440EA0E40A6EB080641
:10040800A0FB02894E45C446CE4618D315D075B315
:10041800B3EB0C0266EB0E0606FA07F722FA01F3B5
:10042800CE401F43C5E90076002111E7294628463A
:100438000EE76646EDE6184601E74345E7D2B8EB16
:10044800020C69EB04040138A646E0E76046D3E7EE
:1004580060468CE78646B9E7614674E702383C4453
:100468002BE7084647E7ACF1020C3E4411E7294662
:10047800EEE600BF704700BF08B5044801F0D2FFA0
:10048800034B1860B0FA80F0400908BD36440008F4
:100498001000002038B51148114C01F0C3FF20604E
:1004A8001048114D01F0BEFF2860A8B1206898B12E
:1004B800072102F0C5FD0446C1B20C4802F03EFE19
:1004C8000621286802F0BCFD2043C4B22146074833
:1004D80002F034FE204638BD0124FBE73C44000806
:1004E80008000020424400080C000020484400088E
:1004F800054B186883681B685B0643684FF040012A
:1005080054BF1B69DB6818470C000020054B1868AE
:1005180083681B685B0643684FF0400154BFDB6883
:100528001B6918470C00002010B5144B1870144BA9
:1005380093E8030088B06A4682E80300D3E9020121
:100548000292012404AA82E80300CDE90624039458
:10055800FFF7CEFF0B4B186843680B491C6802AACB
:1005680006ABA0470446FFF7D1FF1CB10748214658
:1005780002F0E4FD064B187808B010BDDE0200203A
:10058800C841000810000020281C00205D44000815
:10059800DD02002010B5244802F0D0FD0C21002017
:1005A80002F05FFD214802F0C9FD5F21042002F03E
:1005B80058FD1F4802F0C2FD022002F06AFD10B18A
:1005C8001C4802F0BBFD062002F059FD044600203D
:1005D80002F05FFD02F078FD00211D2002F041FDD0
:1005E80000211C2002F03DFD7021072002F039FD9A
:1005F8004C2002F072FD02F077FD02F078FD02F067
:1006080079FD002002F03BFD00F0FE01002002F021
:1006180028FD0948214602F091FD601EC0B2FD2860
:100628008CBF0020012010BD864400088B440008C0
:1006380090440008DF44000896440008014802F08E
:100648007DBD00BFA144000808B5FFF7F7FFFFF71D
:10065800F5FFFFF711FF38B10F4802F06FFD0F48A3
:10066800BDE8084002F06ABD0D4802F067FDFFF7DB
:1006780011FF0028F0D10B4802F060FD0A4802F093
:100688005DFDFFF7DBFFFFF785FF18B1074802F0B4
:1006980055FDFEE70648E3E7A7440008BB44000809
:1006A800C3440008CB440008D4440008DB440008D5
:1006B800E34400080B6801330B60014B1B681847C3
:1006C800341C00202DE9F04F85B09B460E9CDFF8C6
:1006D8009090012CB8BF0124012B0CBF302320239C
:1006E800154606468A46029301274FF00A0800225B
:1006F800B5FBF9F301930AB9A9451FD8019B5146E7
:1007080003F13000B04701370122019B08F1FF389F
:10071800B8F1010F09FB13554FF00A03B9FBF3F9C0
:10072800E6D1514605F13000B047BBF1030F02D1C5
:10073800E41B002C0EDC05B0BDE8F08F4445E4DB7B
:10074800BBF1020FE1D8029803925146B047013736
:10075800039ADAE751462020B047013CE9E700BF99
:1007680000CA9A3B014B1860704700BF341C002038
:100778002DE9F04F8DB01C460027531E05468B46C9
:1007880003934FF0FF39B846002605E06EB92528D7
:1007980000F071815946A847039B13F8010F039392
:1007A8000028F3D10DB0BDE8F08F7A280AD8622866
:1007B80010D8302854D045D8252800F05A812D2843
:1007C80000F05F8159462520A847039B18785946B1
:1007D800A847D9E7A0F16303172BF3D801A252F871
:1007E80023F000BF730A0008B7080008CD07000807
:1007F800CD070008CD07000899080008B7080008C9
:10080800CD070008CD07000899080008CD070008A3
:10081800CD070008CD07000859090008CD070008D2
:10082800CD070008430A0008CD070008270900087B
:10083800CD070008CD07000855080008CD070008B7
:100848009908000839281AD95828BBD1039B1B7866
:10085800702B40F0888054F8043B0693002290E007
:10086800B9F1000F0EDAB8F1000F00F00D81A0F118
:100878003009B8F1000F08BF4FF002088CE7B9F152
:10088800000FF4DB0A2303FB0909A9F13009F0E79B
:10089800682803D1682F06D148277DE76C2802D144
:1008A8006C2F00F0F480002F8CD1074674E77A2F64
:1008B80002D154F8046B21E06C2FFAD04C2FF8D1F8
:1008C800073424F00704F4E80223CDE90423049B49
:1008D80013F10041059B089143F100010991DDE9FD
:1008E800082300214FF0FF30994208BF904204D2FC
:1008F8005946284602F014FC46E7049E002E05DA05
:1009080059462D20A847764209F1FF39CDF80090C5
:100918004346324659462846FFF7D4FE34E77A2F35
:1009280002D154F8042B0FE06C2FFAD04C2FF8D1D9
:10093800073424F00704F4E8022300214FF0FF30C5
:10094800994208BF9042D3D3CDF800904346E1E7DF
:1009580059463020A84759467820A8474FF008093B
:100968004FF0010872E76C2F3FF475AF4C2F7FF4FE
:1009780072AFE31D23F007031C4654F8082B0692B8
:100988005A6800211023049107914FF0400AAAF1F8
:10099800040A0699CAF1200EAAF1200C21FA0AF0DD
:1009A80002FA0EFE40EA0E0022FA0CFC40EA0C00A5
:1009B80010F00F0007D1079911B9BAF1000F25D12E
:1009C8004FF0300C05E009288CBF4FF0570C4FF062
:1009D800300C6044594640B20A920793A847049BDA
:1009E8000A9A01330493079BBAF1000F23D1B8F197
:1009F800030F7FF4C9AE049BC3EB4906002E7FF7B3
:100A0800C3AE59462020A847013EF7E7591E99452D
:100A18000A9107DBB8F1010F06D10B925946302035
:100A2800A8470B9A0A9BB2E7B8F1020FFAD10B92CA
:100A380059462020F4E70796A9E754F8046BB24614
:100A480053461AF8010B68B9B8F1030F21D19E1B60
:100A5800A9EB0606002E7FF797AE59462020A84737
:100A6800013EF7E75946A847EAE754F8040B594608
:100A7800AEE65946ACE63746B0464FF0FF39012698
:100A88008AE64FF0030887E64FF0010884E64C2712
:100A980082E6064680E600BF07B50B4600210246FF
:100AA8000191034801A9FFF763FE03B05DF804FB59
:100AB800BD0600084FF01002EFF3118382F311888E
:100AC800BFF36F8F83F31188BFF36F8F024B034A15
:100AD8001A600020704700BFB81C00200024F400F2
:100AE80010B50748074C01F09DFC074B18602046DD
:100AF80000F080FD2046FFF735FE002010BD00BF46
:100B0800EF440008150B0008140000200A2838B527
:100B1800074D044604D1286843680D215B6898474F
:100B280028684368E1B25B689847204638BD00BF33
:100B3800140000202DE9F84396680D4F04460D4631
:100B48004FF0010806F10409AC4201DBBDE8F88367
:100B58007A6908FA04F333EA020207D17B6156F88E
:100B680034301BB159F83410204698470134EBE76C
:100B7800003C0140044A0123116883400B43136081
:100B8800024B185600F0B6BA003C01400145000877
:100B98001F2807DC044901220B6802FA00F023EA47
:100BA80000000860704700BF003C014003290FD8CF
:100BB800DFE801F0020F1723154B0122996802FAAA
:100BC80000F021EA00019960DA6822EA0000D860A2
:100BD8007047012303FA00F00D4B9A6802439A60AC
:100BE800F2E7012303FA00F0094BDA680243DA60FE
:100BF8009A6822EA000098607047012303FA00F01F
:100C0800034B9A6802439A60DA681043DFE700BF33
:100C1800003C01400346074830B5846854F8330067
:100C280004EBC30518B944F833106A6030BD6FF09F
:100C38000F00FBE7041D0020044B9A6802EBC0017B
:100C4800002342F830304B60704700BF041D00207D
:100C58000B6884B0032B2DD8DFE803F0020E1822AE
:100C6800164A4B68116B19431163126B13400093BA
:100C7800009B002004B07047104A4B68516B194321
:100C88005163526B13400193019BF2E70B4A4B6887
:100C9800116C19431164126C13400293029BE8E72C
:100CA800064A4B68516C19435164526C13400393C4
:100CB800039BDEE76FF02200DCE700BF003802404C
:100CC8000B68032B20D8DFE803F0020A1118104A3A
:100CD8004968136B23EA01031363002070470C4A29
:100CE8004968536B23EA01035363F6E7084A4968E6
:100CF800136C23EA01031364EFE7054A4968536C50
:100D080023EA01035364E8E76FF02200704700BF4D
:100D1800003802400968084B02291B6805D005D92C
:100D2800032906D06FF0220070479B08136000204B
:100D380070475B08FAE700BFB81C002030B50021F7
:100D480087B04FF4A053CDE900134FF4004302934A
:100D580000F038F803A802F024FB184B1A68900733
:100D680006D41A6842F001021A601A689207FCD584
:100D7800124CA36823F00303A360A36823F0F003D5
:100D8800A360A56815F00C05FBD123680C4823F077
:100D980080732360636823F0706343F0E0636360EB
:100DA80003AA6B46294601F0DDFA236823F0010304
:100DB800236002F0FEFA284607B030BD0038024032
:100DC80000127A00064B1A6C42F080521A641B6CAF
:100DD80082B003F080530193019B02B0704700BFBB
:100DE8000038024073B5044606090D46104612B98C
:100DF800114801F017FB00230093104B53F82630DD
:100E08000193013302D16FF0040012E04368694690
:100E18001B6898470028F6D12011800200F1804015
:100E280005F00F032A4604F00F0100F5003002F028
:100E3800B1FB02B070BD00BF1845000800420008B1
:100E4800F8B504460D46094801F0ECFA00260746B5
:100E5800AE4204F1080400D1F8BD54F8041C14F89B
:100E6800080C3A46FFF7BEFF0136F1E718450008BF
:100E78000B4B9A68196898680A4B11F4803F10B5B3
:100E8800094901D1824205D21A680C6822441A60C5
:100E9800034A12681B680A681344181A10BD00BF79
:100EA80010E000E0DC000020D800002008B5FFF7C3
:100EB800DFFF0C4B0C4A18681168084410600022C8
:100EC8001A600A4A116844F2A013401AB0FBF3F002
:100ED80003FB0013136002F033F8BDE8084000F08C
:100EE8009DBA00BFDC000020D4000020D000002004
:100EF800094B102283F82320084B44F29F121A60F2
:100F0800074B00201860074B5A6098601A6842F037
:100F180007021A60704700BF00ED00E0D80000200B
:100F2800DC00002010E000E070B52B4D044651B104
:100F3800431C0ED1294A136823F0010313604FF0B4
:100F48007F432B6070BD40F2E533B0F1FF3F08BF2F
:100F58001C464FF01003EFF3118683F31188BFF39B
:100F68006F8FFFF785FF1E4B1A68104418601D4BE2
:100F780000221A601C4B1B68C21A0DD540F21A4396
:100F88002B602B68154A013B53600023936086F35E
:100F98001188BFF36F8FD5E7013C24EAE47440F26F
:100FA800E5318C4202F58342A8BF0C46181A44F278
:100FB800A0111F3201FB042440F21A43B4FBF1F4E0
:100FC80001FB04049C4204D9084B9C42D8D82C60ED
:100FD800D7E71C46FBE700BFD800002010E000E080
:100FE800D4000020DC000020D00000202094FF0066
:100FF80010B54FF01003EFF3118483F31188BFF39A
:101008006F8FFFF735FF074B074A1B6812689B1A5B
:10101800034484F31188BFF36F8F44F2A010B3FB2D
:10102800F0F010BDD4000020D000002010B54FF023
:101038001003EFF3118483F31188BFF36F8FFFF769
:1010480017FF044B1B68184484F31188BFF36F8F94
:1010580010BD00BFD4000020094A0A4993680968F6
:1010680019670949D8664B6843F080534B600023E1
:1010780083F31188BFF36F8F9368186F704700BFB1
:10108800A00200202C44000800ED00E00F498A6807
:101098004FF030001044EFF3098C80E8F01F102067
:1010A80080F31188BFF36F8F094F4FF000660A6A0B
:1010B8008A603E60D06E0023D36680F3118802F107
:1010C800300090E8F01F8CF309887047A0020020D8
:1010D80004ED00E01EF0040F0CBFEFF30880EFF3FF
:1010E8000980816911F8021C0229FFD001B502F0BC
:1010F80067F901BD43B2002B08DB012200F01F0095
:1011080002FA00F05B09024A42F82300704700BF68
:1011180000E100E043B2002BA8BF03F1604301F1F6
:101128000101B8BF064B4FEA0111ACBF03F561439B
:1011380000F00F00C9B2B4BF195483F80013704708
:1011480014ED00E0C0E918120A44203A22F0070220
:1011580008491360009B5360019B9360029BD36016
:101168004FF08073D36121F0010100239161026582
:10117800C36670475F310008F8B506460C46174647
:101188001D4600F08BF9094B3C4424F007049E608F
:10119800284684F30988002163B681F31188BFF3D8
:1011A8006F8F0022002301F0D6FF00BFA0020020AD
:1011B800014910220A60704710ED00E072B6404005
:1011C80080F31188BFF36F8FBFF34F8F30BF62B6C4
:1011D800BFF36F8F704700BF30BFFFF7FDBF00BF81
:1011E8000E4A08B50E4B22F07F029A60BFF34F8F6C
:1011F800BFF36F8FD3F8882022F47002C3F88820D9
:10120800EFF3148323F0040383F3148801F030F917
:1012180001F046F900F010F901F08CF9000000081F
:1012280000ED00E001B5EFF30580A0F110004FEAF2
:10123800C0000449014409C99847BDE80140024972
:10124800084700002C3E000825140008102080F3F1
:10125800118808484FF40061401880F30988EFF3BB
:1012680014800221084380F31488BFF36F8FFFF7BF
:10127800B7FF000028140020EFF30880EFF309817E
:10128800724601B500F04EF801BD00BF0C4B9A6ADA
:101298009A6A9A6A920708D55A6B9A6A120604D50E
:1012A80018B19A6A22F080029A62054B9A6A9A6A81
:1012B8009A6A9A6A002042F0FF029A6208707047A0
:1012C80000ED00E00D4B9A6A9A6A9A6A920508D571
:1012D8009A6B9A6A120404D518B19A6A22F40042E9
:1012E8009A62064B9A6A9A6AD20558BF9A6A9A6AAB
:1012F800002042F47F429A620870704700ED00E0D7
:10130800074B9A6A9A6A9A6A9A6A9A6A9A6A9A6A67
:101318006FEA02426FEA12429A620020704700BFE9
:1013280000ED00E070B5364B5B688AB00E46C3F33B
:101338000803002585F31188BFF36F8F02F07F4102
:10134800B1F17F4F11D102F00C0108290DD011071E
:1013580001D4064601250022033B8DF80720032B04
:1013680047D8DFE803F0043E423B2E46F3E7244B20
:10137800DA6A92073DD4DC6A14F0804408D0283336
:101388001B78EBB10DF107010120FFF77FFF044641
:101398009DF8073093B92022314602A802F027F8B9
:1013A800099B45B3C3F3080222B96FEA53236FEAD6
:1013B8004323099302A9204602F000F80AB070BD41
:1013C800104B1B782BB10DF107010120FFF77AFFB5
:1013D800DDE70D4B188884B2002CD9D0FFF790FFB9
:1013E800D5E70DF107010020CFE70DF10701002037
:1013F800ECE70024CCE723F4FF7323F00103D8E7DC
:1014080000ED00E029ED00E02AED00E0024A536912
:1014180043F010035361704700ED00E0044B9968F6
:10142800186A884203D003494FF080520A60704717
:10143800A002002004ED00E0044800231021C21897
:101448000133522B82F80013F9D1704700E100E014
:1014580038B504464FF01003EFF3118583F3118874
:10146800BFF36F8F01F090FA0A4B9B68A3420BD130
:10147800094B5A68C2F3080212B92846FFF7ECFD77
:101488005A6842F080525A602846BDE8384002F057
:10149800A0BB00BFA002002000ED00E01FB5084B74
:1014A8000193084B0293084B039301AB0093074A3F
:1014B800074B0121684600F093F805B05DF804FB7E
:1014C800000000200000000000000B0600000020C3
:1014D80000000220DFF884C0F0B506460027104659
:1014E8008F4200DBF0BD56F827E0DEF8044094B3E5
:1014F80043B1651E2C4219D11F2C17D9DEF80020E4
:10150800154213D1202CC2B2DEF80050DEF80800D4
:101518000FD9B4F1004F0ED8013CB4FA84F4C4F1E9
:101528001F046400072A44EA000406D96FF0150076
:10153800D8E70824F6E73E24F4E725F01F0515430D
:1015480045F0100544F00104CCF80820501CCCF8F4
:101558000C50CCF810400137C2E700BF90ED00E016
:10156800034B05225A60BFF34F8FBFF36F8F70474D
:1015780090ED00E0BFF35F8F014B00225A60704787
:1015880090ED00E013490868082810B51ED8FFF749
:10159800F1FF114C49680022904201F10C0105D17C
:1015A8000E4B1870FFF7DCFF002010BDA26051F849
:1015B8000C3C23F01F03134343F01003E36051F87E
:1015C800043C43F0010323610132E5E74FF0FF30AB
:1015D800EBE700BF2C42000890ED00E0DF0200209E
:1015E80010B5034C01232278FFF774FF207010BD5B
:1015F800DF020020014B1860704700BF4C1C002020
:1016080008B503480921FFF71BFC002008BD00BFEF
:101618004C4200082DE9F3411E4603688768D3F859
:101628000880B2F5005F0C462BD101F003030433A8
:101638009A000F23934043EA9103DAB23E490232FB
:1016480051F82220190C02EA134391FAA1F2B2FAD6
:1016580082F2D340D8F808209A4210D12046FFF7EA
:1016680097FA2046FFF7E8FA20460021FFF79EFA8E
:10167800012303FA04F47B6823EA04037B60002552
:101688004BE0B2F5804F50D002462C492046FFF778
:10169800C1FA054600284BD1012303FA04F27B68FE
:1016A80013437B60D8F80870254800F0BBFE254935
:1016B800034603C96A4682E8030059681846D1F808
:1016C80000801146C04704F0030104318B000F214C
:1016D800994041EA9401CAB2920002F1804202F5AF
:1016E8009C320B0C906893FAA3F3B3FA83F320EAC5
:1016F80011419F400F43B6F5802F976011D0B6F582
:10170800C02F10D0B6F5003F14BF0021022120469B
:10171800FFF74CFA2046FFF72DFA284602B0BDE83D
:10172800F0810121F3E70321F1E76FF02205F4E7E7
:101738006FF00F05F1E700BF003801409934000849
:1017480018450008D8410008036810B59C68064889
:1017580000F068FE436804F10C011B6898470028F4
:1017680018BF6FF0040010BD18450008F0B589B027
:101778001F4686689DF8383092B3BA4230D363BBAF
:1017880003689B6801398C001968324B99425ED016
:10179800B1F1804F27D0304821F40063834253D001
:1017A80021F4805500F5806085424DD021F4806594
:1017B80000F50060854247D021F4804500F574406B
:1017C800854241D000F5705083423DD0234B994269
:1017D8003DD003F58063994239D06FF0220031E0A3
:1017E8006FF015002EE084B124F00803042B03D019
:1017F800082C01D03C2CF0D1B1F1804F05D0184B0A
:10180800994202D0B2F5803FE7D80025336C3160A9
:10181800013A7360F2603561B5607561304602F077
:101828001CF9602301A922463046CDE90455CDE9CB
:10183800065501930395029702F029F9214630468F
:1018480002F093F909B0F0BD002CCDD1D7E7002CF8
:10185800CAD1D7E70000014000040040001C004046
:10186800000C004038B5036885689C68064800F09D
:10187800D9FD436868641B68211D9847002818BF74
:101888006FF0040038BD00BF1845000838B503687C
:1018980085689C68084800F0C5FD436821461B68B8
:1018A8009847044620B9284601F08DFF204638BDE8
:1018B8006FF00404FAE700BF184500082DE9F04F5F
:1018C8001F46036884689B688DB09E6805468946F4
:1018D800904612B9002F00F0398104F1040B4FF043
:1018E800FF324FF0FF33584601F0C6F92B68DFF896
:1018F80090C29B680193BCE80F00D5F808A004AD1E
:101908000FC59CE80F0085E80F00DAF8003099450C
:1019180000F09380B9F80430C3F34513082B02D0C4
:10192800102B40F01781019B9D68944800F07AFDC8
:1019380043680199DB6803AA98470028C0F204812C
:10194800039AD9F80010012322FA03F0884240F2E2
:10195800D5810133092BF7D16FF01507F6E02A6816
:1019680042F002022A602A6858074CBF42F001027E
:1019780022F001022A602A6822F444422A602A6876
:10198800D9064CBF42F0800222F080022A602A6801
:10199800D9F8081022F400522A602A6803F00100DE
:1019A80059B142F400722A606A6822F004026A603F
:1019B80068B92A6842F482720CE022F400720028A6
:1019C80000F0BA802A606A6822F004026A602A6815
:1019D80022F482722A60C3F34513082B2B680CBFCC
:1019E80023F4006343F400632B606B6823F0100357
:1019F8006B60CAF8009001B30868F0B14D68D0F880
:101A080008904368EDB21B684FF400722946984766
:101A180040B9012303FA05F5D9F8003023EA050394
:101A2800C9F80030DAF800209368B2F9042019796F
:101A38001868D243D20F01F08CFEB8F1000F00F005
:101A48008C80D8F80030D8F80420A362E2621A68C3
:101A58005B68A263E363002F00F084803B687A68C8
:101A6800236362631A685B682264636433680022D4
:101A780043F04003626201213360204601F079FEA1
:101A880023689B8813F0010140F0B180B268900789
:101A9800FCD5C3F34513082BA26B73D112B1E36BCA
:101AA80003B11178C9B23173E36B83B1013BE363CE
:101AB800002B5CD1E36A013BE362002B5BD0A36A95
:101AC80003F10802A2629A68DB68A263E363B36861
:101AD800D907FCD522689288C2F34512082AD4E9AE
:101AE8001031F2686BD10BB101B11A70636C93B10C
:101AF800013B6364002B40F0CC80636B013B636364
:101B0800002B00F0CB80236B03F1080222639A6854
:101B1800DB6822646364B36813F4B87F00F0C6809E
:101B2800B3685D0605D5F3680393039BB368039315
:101B3800039B6FF00407C1E042F480222A606A68C0
:101B480042F004026A6034E76FF0040738460DB0CB
:101B5800BDE8F08F6FF02207F8E7C4E90A88C4E906
:101B68000E8878E7C4E90C77C4E910777EE7A36BA1
:101B7800002BACD00133A363A9E700BF18450008C8
:101B8800E0410008E36B0AB103B11188B181002B71
:101B98009DD0013BE3636BB9E36A013BE362002B31
:101BA800E9D0A36A03F10802A2629A68DB68A2631B
:101BB8005B088BE7002A8AD00232A26387E70BB161
:101BC80001B11A80636C002BA5D0013B6364002B24
:101BD80066D1636B013B6363002B5FD0236B03F11A
:101BE800080222639A68DB6822645B0892E7B2689D
:101BF800920749D5E16B002946D0C3F34513082B5A
:101C0800A26B2BD113783373E36B9BB1013BE36376
:101C180063B9E36A013BE3625BB1A36A03F10802BB
:101C2800A2629A68DB68A263E36303E0A36B0BB16B
:101C38000133A363B368DF077FF56DAF236C002B17
:101C48003FF469AF626C002A3FF465AF226892885E
:101C5800C2F34512082AF268B3D146E71388B38164
:101C68000139E16369B9E36A013BE362002BE0D023
:101C7800A36A03F10802A2629A68DB68A2635B08A0
:101C8800D2E70232A263D5E7736823F0800373605A
:101C9800D0E7236C002B3FF43EAF013323643AE7CF
:101CA800236C002B3FF437AF0233F7E7E36B002BCD
:101CB8007FF4E6AE676C002F7FF4E2AE0022114697
:101CC800204601F056FD336803F48273B3F5827F32
:101CD80002D1B3681806FCD4B368990606D5B36870
:101CE8000493049B336823F040033360336823F084
:101CF80040033360584600F09FFF27E72A680CA985
:101D080022F040022A6001EB83032A6853F8243C3E
:101D180022F0380213432B60B9F804309A073FF5D4
:101D28001EAE2A6822F002021CE600BF03689B6808
:101D38001B685A6942F001025A61104A934213D053
:101D4800A2F54C4293420FD002F5806293420BD029
:101D580002F58062934207D002F58062934203D075
:101D680002F54442934203D11A6942F040021A61D3
:101D7800DA6842F48072DA60704700BF00100140F0
:101D880003689B681B685A6922F001025A61104A6D
:101D9800934213D0A2F54C4293420FD002F58062D1
:101DA80093420BD002F58062934207D002F580621D
:101DB800934203D002F54442934203D11A6922F0B8
:101DC80040021A61DA6822F48072DA60704700BF54
:101DD800001001402DE9F84303680A799B6886687A
:101DE8001C68012A0D4675D0022A0CBF4FF4806189
:101DF800002195F8058095F80690EF79B8F1020F63
:101E080096BF374B4FF4005E33F818E0B9F1040F72
:101E18000CBF4FF480530023033A012F14BF4FF037
:101E2800000C4FF4407C012A57D918F0FD0F54D00C
:101E3800B9F1020F51D987B12A4A94420BD0A2F5C1
:101E48004C42944207D002F58062944203D002F5D6
:101E58004C42944241D1012F3FD1E26822F4005212
:101E6800E260E26802F4C06291421FBFE76827F4AB
:101E7800C0670F43E760226902F4405296451FBFCE
:101E8800216921F4405141EA0E012161E268296883
:101E980002F4805293421FBFE26822F480521A4330
:101EA800E260636903F440739C451FBF636923F4D0
:101EB800407343EA0C0363613368994203D001F02D
:101EC80070FD2B683360E36843F40053E36000203F
:101ED800BDE8F8834FF4C0618BE76FF02200F7E7A5
:101EE800304400080010014003682DE9F0419F6864
:101EF800D0F808803E46054656F80C4B1A4800F0C4
:101F080091FA4368C8F8040031461B6898470646AA
:101F180038BBE36823F40053E360E36843F00C0341
:101F2800E360E36823F4B053E360236923F4405388
:101F380023613B7D33B12B689B681A68536943F46E
:101F4800407353612846D8F8001001F02AFDE36871
:101F580043F40053E3602846BB6898473046BDE821
:101F6800F0816FF00406F9E718450008036A23F0CA
:101F780001030362036A70B5446882690D6822F040
:101F880073022A438D6823F002032B430E4DA842A7
:101F980002D00E4EB04210D1CE6823F0080333436E
:101FA800A84223F0040302D0084DA84205D1D1E984
:101FB800055624F4407435432C43446082614A68D2
:101FC8004263036270BD00BF00000140000401408D
:101FD800036A23F480730362036A70B54468C269B4
:101FE8000D6822F073022A438D6823F4007343EAD4
:101FF8000523114DA84203D005F58065A84214D1E8
:10200800CD6823F4006343EA05230B4DA84223F46B
:10201800806303D005F58065A84206D1D1E905564D
:1020280024F44054354344EA05144460C2614A68C4
:10203800C263036270BD00BF00000140036A23F45D
:1020480080530362036A30B54468C2690D6822F49C
:10205800E64242EA05228D6823F4005343EA053339
:10206800084DA84203D005F58065A84204D14D6902
:1020780024F4804444EA85144460C2614A680264D6
:10208800036230BD00000140304A0368904212D01C
:10209800B0F1804F0FD0A2F57C4290420BD002F5F0
:1020A8008062904207D002F58062904203D002F528
:1020B8007842904219D14A6823F070031343234AA7
:1020C800904229D0B0F1804F26D0A2F57C429042B0
:1020D80022D002F5806290421ED002F580629042C2
:1020E8001AD002F57842904216D0194A904213D07D
:1020F80002F5806290420FD002F5806290420BD0C8
:10210800A2F59832904207D002F58062904203D03F
:1021180002F58062904203D1CA6823F440731343E6
:102128004A6923F08003134303608B68C3620B681A
:102138008362064B984203D003F58063984201D12D
:102148000B69036301234361704700BF000001402E
:1021580000400140036A23F010030362036A70B56C
:10216800446882690D6822F4E64242EA05228D68D5
:1021780023F0200343EA0513104DA84203D005F5C8
:102188008065A84214D1CD6823F0800343EA051383
:102198000A4DA84223F0400303D005F58065A84204
:1021A80006D1D1E9055624F44064354344EA850450
:1021B800446082614A688263036270BD0000014026
:1021C80010B504460122006801F0C1FC23680B4ADF
:1021D800934203D002F58062934203D15A6C42F4D1
:1021E80000425A649A6802F00702062A1EBF1A685B
:1021F80042F001021A60002010BD00BF000001403B
:10220800054B1A681B6802F0007203F00063134361
:1022180014BF01200020704700380240214B1B6882
:1022280013F480431BD0204B984209D81F4B984287
:1022380001D9042305E01E4B984206D9032300E088
:102248000523012B38BF012309E01A4B984201D915
:10225800022304E0184B98424FF00003F1D8114ACA
:102268001268520411D4154A904208D9104A002B1A
:1022780008BF0423904205D80E4A904202D80E4A5D
:10228800904202D9012B38BF01230D490A6822F078
:102298000F021A430A60086800F00F00C01A18BF3E
:1022A800012070470070004080D1F008000E270719
:1022B800804A5D050087930380C3C901001BB700EE
:1022C800003C02400B68244AC3F3031370B5D35C87
:1022D800224E20FA03F43368A3420D4627D3204B3D
:1022E8001A6842F080721A601A689201FCD59A68DE
:1022F800296822F0F0020A439A609A6822F00302E1
:1023080042F002029A60164B9A6802F00C02082A00
:10231800FAD19A68696822F4E0520A439A609A6886
:10232800A96822F460420A439A60002005E074B16B
:102338002046FFF773FF0028D1D03368A34203D9A2
:102348003CB12046FFF76AFF00B9346070BD012038
:10235800F3E70120FAE700BF71450008B81C002028
:10236800003802402DE9F0410D46044690461946D2
:10237800FFF746FF002838D1D8F80060D8F8047075
:10238800D8F8083006F03F00B4FBF0F4C7F30800B3
:102398004443180C01304000B4FBF0F0144C2268A0
:1023A80092030FD42268012D0CBF42F4802222F43C
:1023B80080222260226842F4803222600C4C22681B
:1023C8009203FCD50A4C0B4A65682A4042EA8712F8
:1023D800324342F480026260626822F440321A4357
:1023E8006260BDE8F041FFF76DBF0120BDE8F081F4
:1023F800003802400080BFFF094B70B553F82040F9
:102408000130002653F82050A54200D870BD23683B
:1024180020465B68984700B166600C34F4E700BF5B
:1024280018440008104B70B5104C05461E469C42D7
:1024380004D10E4CB44209D1002412E062681AB1EA
:1024480022681268AA420CD00C34F0E763680BB912
:102458000C34EFE723682846196800F0BCFF002811
:10246800F6D1204670BD00BFC41D0020C81C002046
:1024780008B50748074A0021121A00F0E3FF06488A
:10248800064ABDE80840121A002100F0DBBF00BF71
:1024980000000020E40200200000001000000010EE
:1024A80009480A4A0A4908B5121A00F0A0FF094A61
:1024B80009490A4800F09BFF09480A4A0A49BDE849
:1024C8000840121A00F093BF281C0020D81D0020D5
:1024D800BC45000800000000BC45000800000020C2
:1024E80000000010000000106C47000808B50C4BF5
:1024F800012202201A70FFF77FFF0A4A0A490B4897
:1025080000F01CFE0320FFF777FF00F01BFCFEF72E
:102518009BF8074A137B23F00103137308BD00BF20
:10252800E0020020B0450008814500088845000801
:102538002C0200202DE98048DFF8FCA0A5B08AF322
:102548000888354D354E6B69DFF8F0B0DFF8F0904C
:10255800334F43F4007300246B61F02385F8223075
:10256800EC772C766C76AC766B6A43F4E0236B627E
:10257800FEF74CFFFEF71CFE4FF0FF33AB62EB6239
:1025880007AB74222146184600F05CFF254D4FF03A
:102598000108A86020468DF82980FFF72DFF4046E6
:1025A800FFF72AFF00F0C8FA1F4B2E624FF4805243
:1025B8004946CDE9048330465B46CDE90244CDE97E
:1025C800004400F099FB737B304623F004037373D7
:1025D80001F01FFB154B1649CDE904830F23CDE904
:1025E80002434FF4A072134B3846CDE9004400F083
:1025F80083FB7B7BEF6023F004037B7305F11803F7
:10260800C5E906332C75C5F804A05B464FF4805223
:1026180049463046FEF7B0FD00ED00E02C020020F0
:10262800B8010020A0020020B1450008B645000806
:10263800E8120020E93D0008281C0020F5240008C5
:10264800E802002010B5084C23685BB1FEF7D0FC07
:1026580003462068054A0344BDE810401361002181
:1026680001F0A0BB10BD00BFD4020020A0020020D2
:1026780010B54FF01003EFF3118483F31188BFF303
:102688006F8F084B00221A610A235843064B1860C3
:10269800064B1960FFF7D6FF84F31188BFF36F8FDD
:1026A80010BD00BFA0020020D4020020D0020020EC
:1026B8004FF01003EFF3118183F31188BFF36F8F8D
:1026C800044B9A68D37B013BD37381F31188BFF322
:1026D8006F8F7047A0020020094B03F12402824249
:1026E80005D19B688B4202D14B7BDB0606D1D1E931
:1026F800003213605A600023C1E90033704700BFFD
:10270800A002002070B5104C064604F1240001F028
:1027180076FAA368597B0546880644BF41F008014C
:10272800597305B9E5684EB95A7BD20606D1AA692C
:1027380022B9DA897F2A01D9236270BDAB4201D060
:10274800FFF780FF2562F8E7A002002010B54FF0E0
:102758001003EFF3118483F31188BFF36F8F084BD5
:102768009A68D37B0133D3730020FFF7CBFF84F340
:102778001188BFF36F8FBDE8104001F036BA00BF73
:10278800A002002070B4437BDB062AD1836943BBD7
:10279800154A114651F8244F8C4218BF2346002B86
:1027A800946A38BF0023B3B190F90E6093F90E50C4
:1027B800AE4203DBA3420ED01B68F4E75A68C0E9B7
:1027C800003210605860437B63F07F03437370BC32
:1027D8000020FFF797BFC0E90014936A1860906261
:1027E800F1E770BC704700BFA002002010B54FF0A1
:1027F8001002EFF3118482F31188BFF36F8F427BCD
:10280800510704D484F31188BFF36F8F10BD22F0F1
:1028180004024273FFF7B6FF21460248BDE81040A4
:1028280001F0CCB9E1020020F8B501464FF01003E1
:10283800EFF3118483F31188BFF36F8F90F90D3094
:10284800002B02DA1948FFF747FF194A1046956A24
:1028580050F8243F834208BF0023002B38BF0023D1
:10286800EBB191F90E7093F90E60B74203DB9D420C
:1028780015D01B68F4E75868C1E900300160596059
:102888004B7B906863F07F034B73431A584258415F
:10289800FFF738FF84F31188BFF36F8FF8BDC1E9E4
:1028A8000005936A19609162EAE700BFC40200203C
:1028B800A002002038B5154A154B146801469868DF
:1028C800A0421C4603D1BDE83840FFF7BBBE002537
:1028D8001560104A1268B2B1C2897F2A13D80E4A0D
:1028E80090F90E50126895420DDB0C4A90420AD0BE
:1028F800826942B91A698A4202DCFFF795FFE2E76A
:10290800521A1A6138BD00232361FBE7CC0200206C
:10291800A0020020D4020020D0020020B80100202C
:1029280070B50446183001F017FA4FF01003EFF3B2
:10293800118683F31188BFF36F8F94F90D30002B44
:1029480007DA0F482146FFF7C7FE637B03F07F03D2
:1029580063730C4D637BA86843F010036373031B18
:1029680058425841FFF7CEFE86F31188BFF36F8FA8
:10297800AB68A34203D1BDE8704001F036B970BD21
:10298800C4020020A0020020F8B5836D044603B1FC
:10299800984704F1180001F0DFF94FF01003EFF346
:1029A800118583F31188BFF36F8F637BD80622D11B
:1029B800A26902BB190607D51C482146FFF78CFE01
:1029C800637B03F07F036373194B9868021B5042C3
:1029D8005041FFF797FE637B43F00803637304F1EC
:1029E80028070026A16AB94200D089B985F3118861
:1029F800BFF36F8FF8BD9B07EDD5A0682146FFF7A1
:102A08006BFE637B23F0020363730023A360E2E79A
:102A18008868FFF761FE4B7B8E6023F002034B73DF
:102A28000E670846FFF7AEFEDCE700BFC4020020D1
:102A3800A002002008B590F90D30002B014606DAF7
:102A48000748FFF749FE4B7B03F07F034B73054BA9
:102A58009868431A58425841BDE80840FFF752BEEB
:102A6800C4020020A0020020F8B5054601F0B4F920
:102A78002C184FF01003EFF3118783F31188BFF37D
:102A88006F8F0D4E0D4BB068186001F0FDF8B068FF
:102A98000B492A46EB17183000F0D8F9B268537B77
:102AA80043F0100353733846FEF7D6FA01F094F951
:102AB800201A20EAE070F8BDA0020020CC02002015
:102AC8003B3C00082DE9F041064614461D464FF0F0
:102AD8001003EFF3118783F31188BFF36F8F01F0B1
:102AE800E3F887F31188BFF36F8F6B1C08BFB4F14D
:102AF800FF3F08D022462B4606F118000349BDE8DF
:102B0800F04100F0A3B9BDE8F08100BF3B3C0008EC
:102B180010B5074B9868074B0C4618601146DDE95D
:102B28000223FFF7CFFF2046BDE81040FEF794BA16
:102B3800A0020020CC020020044B002103F1240253
:102B4800C3E909220846FFF793BD00BFA002002091
:102B5800F8B5244C244BA2689A4230D04FF01003A9
:102B6800EFF3118583F31188BFF36F8FA16804F128
:102B78002400FFF7B1FD636AA268A16A834208BF17
:102B88000023002B38BF00232BB392F90E7093F962
:102B98000E60B74203DB8B421DD01B68F4E759680F
:102BA800C2E900310A605A60537B63F07F035373B4
:102BB8000120FFF7A7FD85F31188BFF36F8F4FF052
:102BC8001003EFF3118083F31188BFF36F8FBDE813
:102BD800F840FEF741BAC2E90001A36A1A60A2628E
:102BE800E2E700BFA0020020B80100200B46013335
:102BF80008BFB0F1FF3F10B506D10B4B9868FFF73F
:102C08008FFE4FF0FF3010BD044640B9FFF7A0FF1C
:102C18000A2200232046E117FDF7B2FAF3E7FFF78F
:102C280023FF0446F4E700BFA0020020014B986888
:102C3800704700BFA002002038B504464FF01003CB
:102C4800EFF3118583F31188BFF36F8F01F057F805
:102C580048B10022026700F0DCFF29460548BDE8BC
:102C6800384000F0ABBFD4E902329A4218BF0133B2
:102C7800A360F2E7E102002037B514461D464FF085
:102C88001003EFF3118183F31188BFF36F8F83680B
:102C980043B1013B836081F31188BFF36F8F00203C
:102CA80003B030BD54EA050306D181F31188BFF3A0
:102CB8006F8F6FF00F00F3E70246CDE90045024839
:102CC800FFF726FFECE700BFE10200200849094AA8
:102CD80038B5A0FB01010023FDF752FA0446FEF7C0
:102CE800A5F90546FEF7A2F9431BA342FAD338BD5E
:102CF800007A030A40420F00F0B587B0DDE90F679C
:102D080000F12805CDE9036786730E9E0296C0E997
:102D18000A550D9E019604250C9E45730025C0E9B1
:102D280006550773C57300960446FEF70BFA044B65
:102D38009B68C4E9155503B19B6EA36607B0F0BD47
:102D4800A0020020F0B5214F214D87B03E46BD427C
:102D580005F130040BD3FFF7ABFC1D4C1D4F0A25C2
:102D6800B44221D307B0BDE8F040FFF7EFBC54F8F8
:102D7800043C059354F8103C049354F8143C039312
:102D880054F8183C029354F81C3C019354F8203C26
:102D9800009354E90A2354E90C01FFF7ADFF54F8F6
:102DA800303C5D652546D2E7626A531C06D022EAAC
:102DB800E2726A43206803D1FFF718FD3034CFE789
:102DC80000233946183000F041F8F7E7C41D002009
:102DD800C41D00203B3C0008034B1B680BB9FEF7E1
:102DE80007B90020704700BFD8020020036840B12F
:102DF800074A5268904204D01BB19A6881680A4415
:102E08009A60426813605A600023C0E90033704733
:102E1800BC1C00200B4B10B51C689C4208BF00244A
:102E2800FFF7DAFF54B1A368181A20EAE070064BDE
:102E38001B6913B19842A8BF184610BD6FF0004037
:102E4800F5E700BFBC1C0020A00200202DE9F74FC9
:102E5800019119464B1C08BFB2F1FF3F824661D071
:102E6800541C6FF0010341F100054FF0FF3BB3EB39
:102E780004086BEB0509B8F1000F79F100030FDBCB
:102E8800FFF7AAFF2C4AD2E9001C6FF001035B1A76
:102E98006BEB0C021E1B62EB0507341A67EBE0753F
:102EA800019BCAF80C304FF01003EFF3118683F33F
:102EB8001188BFF36F8FFFF78FFF012C75F10003A7
:102EC8001E4B1A68B8BF012404449A42CAF8084045
:102ED80001D05C6852B95A68CAF804205A68CAF81E
:102EE8000030C2F800A0C3F804A00DE09068DAF83A
:102EF8000810884219DD411A91605168CAE9002119
:102F0800C1F800A0C2F804A01A689A4206D09245F7
:102F180004D1FFF77FFF0021FEF706F886F311883A
:102F2800BFF36F8F03B0BDE8F08F091A9442CAF857
:102F38000810D0D01268CDE700000020BC1C00208B
:102F48002DE9F0470646FFF7B5FC4FF01003EFF305
:102F5800118483F31188BFF36F8F204DDFF88080D1
:102F6800DFF880A02E60C146DAF800002A685045D4
:102F7800D8E9006705D020B18368934213DD9B1A16
:102F88008360B61847EBE277C9E9006700262E6030
:102F9800FFF740FF3146FDF7C7FF84F31188BFF301
:102FA8006F8FBDE8F087F61847EBE377D31A2B60ED
:102FB80000238360C8E90067FFF718FF84F31188CE
:102FC800BFF36F8FC36898474FF01003EFF3118476
:102FD80083F31188BFF36F8FC6E700BFD8020020C4
:102FE80000000020BC1C002010B54FF01003EFF3C8
:102FF800118483F31188BFF36F8FFDF7F9FF064B38
:10300800D3E90023121843F1000384F31188BFF3B6
:103018006F8F1046194610BD0000002038B5064CC9
:10302800064DAC4201D3002038BDD4E90112204638
:1030380000F0EAFE1434F4E7C41D0020C41D00208B
:1030480038B585680C4643684FF4D0521B689847DA
:1030580030B9012303FA04F12B6823EA01032B603A
:1030680038BD00F01F0038B540F020000D46FDF7D0
:103078005BFA04462846FDF757FA204638BD08B5DE
:1030880000F01F00FDF750FABDE80840FF20FDF7EB
:103098004BBA38B505460620FFF7F1FF022D00F0C0
:1030A800D7040CD144F0200421460620FFF7D9FFAD
:1030B8000620FFF7E4FF031B5842584138BD012D95
:1030C80008BF44F00804EFE708B55020FDF72CFAD4
:1030D800BDE808407320FDF727BA7D28014628BFC0
:1030E8007D210520FFF7BDBFE220FDF71DBAE120D5
:1030F800FDF71ABA08B50020FFF7C1FF014610F026
:1031080002000AD141F00201C9B2FFF7AAFF32203A
:10311800BDE808400021FFF769BD08BD00207047E1
:1031280070B504460D464520A04729465220A047C1
:10313800294623465220BDE8704018470FB407B50A
:1031480004A951F8040B0191FDF7A6FC03B05DF842
:1031580004EB04B07047044608B5084611461A4601
:10316800A047FFF763FDFEF773F9036803EBC1019E
:103178008368B3F5004F2CBF51F8220031F81200D4
:10318800704710B50468806804EBC101B0F5004FC2
:103198002CBF41F8223021F8123010BD2DE9F04142
:1031A800002204460D46FFF7E0FFE268A3681040DE
:1031B800B3F5004FB0FA80F234BF002001206368F5
:1031C800C0F11F00801A03EBC0014A68561C4E600C
:1031D800A2B9012202FA00F162690A436261294632
:1031E80043F8305002222B462046FFF7CAFF03223D
:1031F80029462046BDE8F041FFF7C3BF53F83070B9
:10320800022239462046FFF7B0FF0222034606464F
:1032180029462046FFF7B5FF3B46032229462046AC
:10322800FFF7AFFF032231462B462046FFF7A9FFE1
:1032380002223946DDE7F8B58B18CC1D24F00704C7
:1032480023F007031B1BDB0847F6FF72B3F5004F9B
:103258002CBF6FF00041114693420460E16094BFB7
:1032680000210121B3FA83F6C1F1200104F1180508
:10327800891B21F06041C4E9015300200331246017
:103288006061216117468446A268BA4294BF002251
:103298000122C2F11F02921B90420ADD5B1A2046EE
:1032A8000022FFF76EFF21692046BDE8F840FFF7CE
:1032B80075BFC5F804C0013045F808CBE4E770478E
:1032C800024601210020FDF735BC024602210120FB
:1032D800FDF730BC024603210220FDF72BBC024655
:1032E80004210320FDF726BC024605210420FDF732
:1032F80021BC02460A210520FDF71CBC024610210C
:103308000A20FDF717BC024611211020FDF712BC58
:10331800024613211220FDF70DBC02461621152086
:10332800FDF708BC024617211620FDF703BC002252
:1033380008B511460620FDF7EDFE002211460720CC
:10334800FDF7E8FE002211460820FDF7E3FE002203
:1033580011460920FDF7DEFE002211460A20FDF77E
:10336800D9FE002211461720FDF7D4FE002211468F
:103378002820FDF7CFFE002211460120FDF7CAFEE6
:10338800002211462A20FDF7C5FE00221146022020
:10339800FDF7C0FE002211460320FDF7BBFE00200A
:1033A80008BD4FF4A8730822C0E9002300238360F6
:1033B800704770470021012000F000B800F0E3BB1F
:1033C8000146006800F0DFBB08B5FDF705FFBDE862
:1033D8000840FEF723B8431E013913F8012F11F8EE
:1033E800010F824201D1002AF7D1101A7047F0B5B7
:1033F80081EA0004A50703460BD0013B0A44914229
:103408001BD1F0BD002AFCD011F8014B03F8014B89
:10341800013A9C07F6D122F003041D1F96080F19E4
:10342800B94205D16FF0030505FB06222344E4E702
:1034380051F804CB45F804CFF2E711F8014B03F833
:10344800014FDCE770B5C9B203469C0711D141EAC8
:10345800012422F0030644EA04451E449408B342BA
:103468000DD16FF0030505FB04221A44934209D1DC
:1034780070BD002AFCD003F8011B013AE5E743F8C8
:10348800045BECE703F8011BF0E74FF0FF307047EF
:103498008A685368C340DB0770B50E4615D5916836
:1034A80099B10C680125002C38BF002485408A6832
:1034B8002A4002D04B683046984734B12368002B25
:1034C80038BF002321461C46F1E770BD03689B689E
:1034D8005B681B690B600020704703689B685B682A
:1034E800586942400A4042405A61002070470368C8
:1034F8009B685B6800209961704703689B685B68FC
:10350800090499610020704703689B685A685369E9
:103518004B405361002070478368986830B558B1B4
:103528000024814213D108685CB9DC689860A14224
:1035380000D1D8600020086072B9002030BD28464C
:10354800EFE72060D868814208BFDC60F2E70568D1
:103558000446002DF3D13AB19A680A60D868996098
:103568000028EAD1D960E9E76FF01500E6E782683C
:10357800012303FA01F153680B435360002070479D
:103588008268012303FA01F1536823EA01035360B7
:1035980000207047F0B501248C4094FAA4F7B7FADC
:1035A80087F7D0F800C07F004FF0030E0EFA07F738
:1035B8002CEA070C94FAA4F7B7FA87F7C2F30115B7
:1035C8007F0002F03006BD4045EA0C05202E05605C
:1035D80015D1072948DC94FAA4F5076A0DB1B5FAA4
:1035E80085F60F25B60005FA06F694FAA4F5B5FA9D
:1035F80085F5AD0027EA0606AB403343036245680C
:10360800C2F3801303FA01F125EA04031943416068
:1036180094FAA4F1B1FA81F185680326490006FA03
:1036280001F125EA010594FAA4F1B1FA81F1C2F396
:10363800C11349008B402B43836094FAA4F3B3FA77
:1036480083F3C16894FAA4F45B00B4FA84F4C2F377
:10365800412206FA03F3640021EA030302FA04F4A0
:103668001C43C4600020F0BD250A476A95FAA5FCF2
:10367800BCF1000F01D0BCFA8CF6B6004FF00F0C6D
:1036880095FAA5F5B5FA85F50CFA06F6AD0027EA20
:103698000606AB4033434362B1E738B513460268C8
:1036A80095689A050C4616D599070DD55A072ED553
:1036B8005022D9060AD542F4007219051BD50121FA
:1036C800A140FFF714FF0FE01022F2E79906F4D5A6
:1036D80042F48062F1E7D90514D5DA0614D413F060
:1036E800200218BF4FF48062686800232146FFF764
:1036F80051FF002038BD5B05F6D50121A140FFF739
:10370800FCFEF1E73022EFE74FF40072ECE76FF0D0
:103718002200EFE7036837B599688568144692B1C7
:10372800686C436801AADB680431984700280DDB00
:103738002A6C019B00205B000132B3FBF2F3C4E961
:10374800003003B030BD6FF01500FAE76FF00400E9
:10375800F7E7012303FA01F183681B68194218BFD0
:1037680082F0010212B14368DB68184743681B699D
:10377800FBE738B50568044625B3AB6813B318688A
:1037880000B361B1B5F904201979D20FFFF7E1FF51
:1037980023689B689868BDE83840FFF797BA12B964
:1037A800AA8892040ED49868FFF790FA2268936862
:1037B800B2F9042019791868D243BDE83840D20F0D
:1037C800FFF7C7BF38BD10B5012200210446FFF737
:1037D800D0FFE36823B9201DBDE81040FFF72CBADD
:1037E80010BD08B58068FFF7EEFF002008BD82B065
:1037F80003680193019B43680193019B02B07047E2
:1038080008B503689B68186803681A0701D5FFF7AD
:10381800EEFF03689B0643BF43680B7000204FF020
:10382800FF3008BD03689B681B681A681206FCD540
:103838006FF040021A605960704708B503689B68CA
:10384800186802680368DB070368C2F3C00248BF50
:1038580042F00202990748BF42F00402D30701D59B
:10386800FFF7C5FF910701D5FFF7C1FF530701D542
:10387800FFF7BDFFFFF7BBFF104608BD03689B6855
:1038880030B51C680023D8B2151A002D04DD256850
:103898002D0603F1010300D430BD085C6060F2E737
:1038A80038B503689B681C680025E8B2131A002B1A
:1038B80002DD23689B0600D438BD63680B54236877
:1038C800180702D52046FFF792FF0135EDE7036898
:1038D8009B681A68D36843F04003D3607047036855
:1038E8009B681A68D36823F04003D3607047036865
:1038F8009B681B681868C0F3C010704703689B6812
:103908001B681868C0F38010704703689B681A68C2
:10391800D36843F02003D360704703689B681A6834
:10392800D36823F02003D360704703689B681B6843
:103938001868C0F34010704703689B681B681A68D2
:10394800910602D5DA68920607D4186810F040008C
:1039580004D0D868C0F38010704701207047012058
:1039680070478368C3E902127047826893680BB195
:10397800D0681847704708B5002225201146FDF782
:10398800C9FBBDE808402520FDF7B4BB08B50022F7
:1039980026201146FDF7BEFBBDE808402620FDF7AE
:1039A800A9BB036837B50D469968836851F80C4B75
:1039B8005868436801AADB689847002814DB019817
:1039C8001921AA00AB0FA0FB0101FCF7D9FB642267
:1039D800B0FBF2F102FB11031B013233B3FBF2F32C
:1039E80003EB01139BB2A36003B030BD83681B686F
:1039F8000B6003689B681A68D36803F4C063B3F567
:103A0800806F23D0A3F5C060434243410B71136913
:103A180003F44053B3F5805F1AD0B3F5405F19D073
:103A2800002B14BF032301234B71D36813F4805F69
:103A380014BF042303238B71536903F44073A3F564
:103A4800407253425341CB71002070470223DDE797
:103A58000023E9E70223E7E7704710B50446A0B161
:103A680090F83D3003F0FF021BB980F83C20FFF7C7
:103A7800F3FF0223206884F83D30211DFEF704FB84
:103A8800012384F83D30002010BD0120FCE738B543
:103A980090F83C30012B04464FF0020010D001236F
:103AA800082A84F83C3084F83D003FD009D8DAB1C0
:103AB800042A2AD00123002084F83D3084F83C00F1
:103AC80038BD0C2AF6D12068FEF7B8FA23680969D0
:103AD800DA6942F40062DA61DA6922F48062DA6152
:103AE800DA6942EA012230E02068FEF73FFA2368EB
:103AF80009699A6942F008029A619A6922F00402F7
:103B08009A619A690A439A61D4E72068FEF722FB12
:103B1800236809699A6942F400629A619A6922F4F1
:103B280080629A619A6942EA0122ECE72068FEF70E
:103B38004FFA23680969DA6942F00802DA61DA693A
:103B480022F00402DA61DA690A43DA61B2E7036A49
:103B580001F01F0110B501248C4023EA040303621D
:103B6800036A8A401A43026210BDFEF729BB4FF070
:103B78001002EFF3118382F31188BFF36F8FFEE712
:103B880008B5FFF7F4FFF8B505460E464FF01003E9
:103B9800EFF3118783F31188BFF36F8FFFF746F8B0
:103BA800314604462846FFF7EBFF87F31188BFF339
:103BB8006F8F2046BDE8F840FDF74ABC21B9EFF306
:103BC800058008B9FDF748BA81F31188BFF36F8FF4
:103BD8007047034620B9EFF305820AB9FDF73CBAEE
:103BE80083F31188BFF36F8F70474FF01003EFF323
:103BF800118083F31188BFF36F8FFFF7EABF034685
:103C08000068834203D0002838BF00207047002096
:103C1800704710B54FF01003EFF3118483F3118848
:103C2800BFF36F8FFEF7AEFD84F31188BFF36F8F7C
:103C380010BD38B550F8103C0446A0F11801C3B1C6
:103C48004FF01003EFF3118583F31188BFF36F8FE3
:103C580050F8100CFEF740FD14F80B3C23F002035B
:103C680004F80B3C002344F8103C85F31188BFF39B
:103C78006F8F14F80B3C23F0140304F80B3C084630
:103C8800BDE83840FFF7C5BF10B54FF01003EFF39C
:103C9800118483F31188BFF36F8FFEF7CBFE84F393
:103CA8001188BFF36F8F10BD38B504460D46FEF777
:103CB800C1FE637B43F002036373C5B12B68A56043
:103CC8009D4208BF0023002B38BF002383B194F91D
:103CD8000E1093F90E20914204DB6A689A4207D0CD
:103CE8001B68F3E75A68C4E9003214605C6038BDA9
:103CF8006B6863606B6825601C606C60F7E738B5BB
:103D08004FF01003EFF3118283F31188BFF36F8F25
:103D1800FFF775FF044682F31188BFF36F8FC8B1B0
:103D28004FF01003EFF3118583F31188BFF36F8F02
:103D380001468068FEF7D0FC637B23F002036373BF
:103D48000023A36085F31188BFF36F8F04F1180077
:103D580000F002F8204638BD10B54FF01002EFF31E
:103D6800118482F31188BFF36F8F03683BB1FFF7AB
:103D78003DF8002084F31188BFF36F8F10BD6FF0FA
:103D88001500F7E710B54FF01003EFF3118483F334
:103D98001188BFF36F8FFFF73DF884F31188BFF3E5
:103DA8006F8F10BD70B504460D464FF01003EFF34A
:103DB800118683F31188BFF36F8FFFF72BF8012863
:103DC80005DDA04203DD29462046FDF7ADF886F360
:103DD8001188BFF36F8F70BD08B5FFF705F908BDEF
:103DE80008B54FF01002EFF3118382F31188BFF387
:103DF8006F8FFFF7C7FF01210228D8BF0846FFF7DA
:103E0800D1FFFDF7DBF9ECE710B400F10C04C0E9D1
:0A3E1800034410BCFFF70FBA704717
:023E2200FFFFA0
:083E240094C3FF7F01000000C0
:103E2C0000000000BD330008041D00200F33000803
:103E3C00041D002023330008041D00202D3300082E
:103E4C0000000000BD33000800000000BD33000876
:103E5C00041D0020C9320008041D0020D3320008C4
:103E6C00041D0020DD320008041D0020E73200088C
:103E7C00041D0020F132000800000000BD330008D2
:103E8C0000000000BD33000800000000BD33000836
:103E9C0000000000BD33000800000000BD33000826
:103EAC0000000000BD33000800000000BD33000816
:103EBC0000000000BD33000800000000BD33000806
:103ECC0000000000BD33000800000000BD330008F6
:103EDC0000000000BD330008041D0020FB32000868
:103EEC0000000000BD33000800000000BD330008D6
:103EFC0000000000BD33000800000000BD330008C6
:103F0C0000000000BD33000800000000BD330008B5
:103F1C0000000000BD33000800000000BD330008A5
:103F2C0000000000BD33000800000000BD33000895
:103F3C0000000000BD33000800000000BD33000885
:103F4C0000000000BD3300081C1D00207339000860
:103F5C00101D00207339000800000000BD3300085C
:103F6C00041D00200533000800000000BD330008CC
:103F7C00041D00201933000800000000BD330008A8
:103F8C0000000000BD33000800000000BD33000835
:103F9C0000000000BD33000800000000BD33000825
:103FAC0000000000BD33000800000000BD33000815
:103FBC0000000000BD33000800000000BD33000805
:103FCC0000000000BD33000800000000BD330008F5
:103FDC0000000000BD33000800000000BD330008E5
:103FEC0000000000BD33000800000000BD330008D5
:103FFC0000000000BD33000800000000BD330008C5
:10400C0000000000BD33000800000000BD330008B4
:10401C0000000000BD33000800000000BD330008A4
:10402C0000000000BD33000800000000BD33000894
:10403C0000000000BD33000800000000BD33000884
:10404C0000000000BD33000800000000BD33000874
:10405C0000000000BD33000800000000BD33000864
:10406C0000000000BD33000800000000BD33000854
:10407C0000000000BD33000800000000BD33000844
:10408C0000000000BD33000800000000BD33000834
:10409C0000000000BD33000800000000BD33000824
:1040AC0000000000BD33000800000000BD33000814
:1040BC00B0450008BD0A000800000000B04500082B
:1040CC00E90A000800000000F64400083733000835
:1040DC000000000018450008450D00080000000015
:1040EC0021450008F90E000800000000B04500084A
:1040FC008D15000800000000B045000809160008E6
:10410C00000000003A45000851170008344300082D
:10411C004045000851170008204300084645000898
:10412C00511700080C4300084C45000851170008B3
:10413C00F84200085245000851170008E4420008F4
:10414C005845000851170008D04200083C440008AC
:10415C0051170008BC4200084244000851170008DF
:10416C00A84200085E450008511700089442000858
:10417C00644500086D1800087443000836440008B4
:10418C009518000890430008EF440008F11E000841
:10419C00B44300086A450008F11E00089C4300085F
:0C41AC00B04500082530000800000000AD
:1041B800C41C002001000000DC02002001000000F7
:1041C800DE02002001000000DD02002001000000E6
:1041D800030000000040000000000000080000008C
:1041E8001000000018000000200000002800000057
:1041F800300000003800000001000000020000004C
:10420800040000000800000010000000200000006A
:10421800400000008000000000010000FFFFFFFFD9
:10422800FFFFFFFF02000000344200080000000802
:104238002B4500082600020700000020334500082F
:1042480020000B11160000002702000017000000D4
:104258002700000002000000270200000300000001
:10426800270000003500000027020000360000008B
:1042780027000000000000002102000001000000EB
:10428800210200001400000022000000FFFF0000CF
:1042980000000240000000000000000001000000D3
:1042A800FFFF0000000402400100000000000000C1
:1042B80002000000FFFF00000008024002000000AA
:1042C8000000000004000000FFFF0000000C024096
:1042D800030000000000000008000000FFFF0000CD
:1042E8000010024004000000000000001000000060
:1042F800FFFF00000014024005000000000000005D
:1043080020000000FFFF0000001802400600000027
:104318000000000040000000FFFF0000001C0240F9
:10432800070000000000000080000000FFFF000000
:10433800002002400800000000000000000100000A
:10434800A3360008D5340008E3340008F734000821
:1043580003350008113500081D160008213500082E
:10436800773500088935000800000000000000408B
:104378000200000001000000751700081D37000842
:10438800C5180008EB370008030000000010000003
:104398000030014000100140000000007F39000893
:1043A800030000001000000000000000004400406E
:1043B800000000009539000802000000000002001B
:1043C80000000000093800082D38000843380008AC
:1043D800DD1D0008F539000885380008A9380008EF
:1043E800D7380008E7380008F738000813390008FC
:1043F800233900080539000833390008351D00083D
:10440800891D000841390008673900086B39000820
:10441800C81C0020341D0020401D0020C41D0020A1
:10442800C41D0020F5FFFFFF0010000000305350AE
:10443800495F31004750494F43004750494F4200B8
:104448004750494F207265743A2025640A007475F4
:1044580074656A0A00535049206572726F723A2077
:1044680025640A0054582073656E743A2025780A2A
:1044780000525820726563763A2025780A006865EC
:104488006A300068656A310068656A320A007365D7
:104498007475703A2025640A00445550410A004654
:1044A80041494C454420746F20696E6974207370CB
:1044B800690A006578697465640A00535049206F79
:1044C8006B0A004750494F206F6B0A007769746187
:1044D8006A0A004E5246204F4B0A004E524620466A
:1044E80041494C45440A00554152545F32007374A7
:1044F8006D33322D6578746900060708090A1717A5
:1045080017171728282828282801FF2AFFFF020341
:1045180073746D33322D6363007379735F636C6FEB
:10452800636B00464C4153485F30005352414D5F26
:1045380030004750494F49004750494F48004750BD
:10454800494F47004750494F46004750494F45009B
:104558004750494F44004750494F410050574D5F1D
:104568003200554152545F31000000000000000045
:10457800000102030406070809322E322E393900D9
:104588002A2A2A20426F6F74696E67205A657068FC
:104598007972204F532076657273696F6E20257388
:1045A800202573202A2A2A0A006D61696E00696431
:0445B8006C6500002E
:1045BC00404B4C00060100000000000025310008B3
:1045CC00590C0008C90C0008000000001D0D000863
:1045DC00000000009334000800000000541C002070
:1045EC00541C00200000000001000000641C00208E
:1045FC00641C00200000000001000000000000000E
:10460C00000000000000000000000000000000009E
:10461C00000000000000000000000000000000008E
:10462C0000C20100000000000000000000000000BB
:10463C0000C20100000000000000000000000000AB
:0D464C000024F400BC1C0020BC1C002069F0
:03465900FFFFFF61
:10465C00BC4000080000000000000000E040000822
:10466C00381C00200000000004410008000000007D
:10467C0000000000AC410008000000000000000039
:10468C00F84000080000000000000000D4400008C2
:10469C00000000001800002094410008CC430008E2
:1046AC00A81C0020A0410008CC430008981C002046
:1046BC00C84000080000000000000000EC400008AA
:1046CC0000000000000000001041000848430008F2
:1046DC00600100201C4100084843000850010020E4
:1046EC0028410008484300084001002034410008DC
:1046FC0048430008300100204041000848430008AE
:10470C00200100204C410008484300081001002003
:10471C00584100084843000800010020644100088B
:10472C0048430008F000002070410008484300088E
:10473C00E00000207C41000880430008700100204C
:0C474C008841000888430008501C002031
:10475800C41D0020C41D002000000000000000004F
:044768000F0000003E
:040000050800125588
:00000001FF
